:1000000064C000008AC0000088C0000086C00000F4
:1000100084C0000082C0000080C000007EC00000DC
:100020007CC000007AC0000078C00000BBC70000A0
:1000300074C0000072C0000070C000006EC00000FC
:100040000C94CF0D6AC000000C945A0B0C94950BC5
:1000500064C0000062C0000060C000005EC000001C
:100060009AC400005AC000000000000024002700CD
:100070002A0000000000250028002B0000000000DE
:1000800023002600290004040404040404040202DA
:100090000202020203030303030301020408102007
:1000A0004080010204081020010204081020000012
:1000B0000007000201000003040600000000000029
:1000C00000002A017103E107000D11241FBECFEFCC
:1000D000D8E0DEBFCDBF12E0A0E0B1E0ECE8F4E292
:1000E00002C005900D92AA39B107D9F715E0AAE927
:1000F000B2E001C01D92AF32B107E1F710E0CAECE7
:10010000D0E004C02297FE010E948C0FC23CD107B0
:10011000C9F70E943A0B0C94441272CF482F6AE040
:100120000E94FE0E282F30E084E0220F331F8A95B4
:10013000E1F7842F0E94FE0E892F820F0895282F49
:1001400022952F709AE0299F900111248F70820FC1
:100150000895EF92FF920F931F937C010BEF12E033
:10016000C80168E670E083D2C80160E001D3F701FE
:100170008081D4DF682FC801FBD2F7018181CEDFF7
:10018000682FC801F5D2F7018281C8DF682FC80146
:10019000EFD2F7018381C2DF682FC801E9D2F701EE
:1001A0008481BCDF682FC801E3D2F7018581B6DF07
:1001B000682FC801DDD2F70186818E51AFDF682F2D
:1001C000C801D6D2C80115D31F910F91FF90EF90AF
:1001D0000895EF92FF920F931F937C010BEF12E0B3
:1001E000C80168E670E043D2C80160E0C1D2C8012E
:1001F00000D3C80168E670E047E050E008D3C801CA
:1002000049D28F779CDFF7018083C80143D297DF03
:10021000F7018183C8013ED28F7391DFF70182839A
:10022000C80138D28CDFF7018383C80133D287DF5E
:10023000F7018483C8012ED282DFF7018583C801CC
:1002400029D27DDF825EF70186831F910F91FF9097
:10025000EF9008958BEF92E0DCC28F929F92AF9265
:10026000BF92CF92DF92EF92FF920F931F93CF93A3
:10027000DF937B018C01EA012CE330E040E050E0A9
:100280000E941D0F6883C801B7012CE330E040E0F5
:1002900050E00E941D0F122F032FF42EE52E622F27
:1002A000732F842F952F2CE330E040E050E00E9424
:1002B0001D0F6983612F702F8F2D9E2D2CE330E051
:1002C00040E050E00E941D0F122F032FF42EE52E68
:1002D000622F732F842F952F28E130E040E050E00B
:1002E0000E941D0F6A83612F702F8F2D9E2D28E194
:1002F00030E040E050E00E941D0F79018A01C80102
:10030000B7016C5F7F4F8F4F9F4F27E030E040E099
:1003100050E00E941D0F6F5F6B8320E0AA24BB2476
:10032000650101C02F5F822E9924F401EE54F84F2D
:10033000CF0183709070892B99F4CF0164E670E04F
:100340000E940A0F892B39F4CF0160E971E00E9405
:100350000A0F892B29F48EE691E0A0E0B0E004C0FA
:100360008DE691E0A0E0B0E0A80EB91ECA1EDB1E2B
:10037000C501A0E0B0E0E816F9060A071B0790F6F1
:100380002E83F401EE54F84F83E0882E912C8E22B8
:100390009F228114910499F4CF0164E670E00E94D9
:1003A0000A0F892B39F4CF0160E971E00E940A0F2E
:1003B000892B29F48EE691E0A0E0B0E004C08DE640
:1003C00091E0A0E0B0E0A81AB90ACA0ADB0A9801D5
:1003D00087010A191B092C093D09CF0164E670E069
:1003E0000E940A0F7C01CF0160E971E00E940A0FB0
:1003F000AC01EEE6F2E060E0613051F4811491046A
:1004000049F4E114F10441F44115510529F002C009
:10041000808103C08CE101C08DE190E0A0E0B0E0FC
:10042000081719072A073B0740F0081B190B2A0B6E
:100430003B0B6F5F31966C30F9F66F5F6D83802FE9
:100440008F5F8C83DF91CF911F910F91FF90EF9081
:10045000DF90CF90BF90AF909F908F900895EF92D4
:10046000FF920F931F937B018C018091B1029091B9
:10047000B202A091B302B091B402E816F9060A07DD
:100480001B0769F0C801B70146EA52E0E6DEE092D8
:10049000B102F092B2020093B3021093B4021F9122
:1004A0000F91FF90EF900895DADF2091AC0230E0D9
:1004B0002E54384FC901089560939C0270939D0299
:1004C00080939E0290939F02209166023091670272
:1004D0004091680250916902260F371F481F591F2B
:1004E0002093A0023093A1024093A2025093A30252
:1004F00082E090E09093A5028093A4020E94170EE0
:100500006093AD027093AE028093AF029093B002FD
:100510000895EF92FF920F931F931CC02F5F3F4FE0
:100520004F4F5F4F20939C0230939D0240939E0259
:1005300050939F0288EE93E0A0E0B0E0E80EF91E31
:100540000A1F1B1FE092AD02F092AE020093AF02B1
:100550001093B0020E94170EE090AD02F090AE0230
:100560000091AF021091B0026E197F09800B910BC0
:1005700020919C0230919D0240919E0250919F02D9
:10058000685E73408040904048F68091A002909150
:10059000A102A091A202B091A302281739074A072D
:1005A0005B07C0F1E0919A02F0919B02309791F1C4
:1005B0000995611571058105910511F07DDF2AC04E
:1005C0008091660290916702A0916802B0916902E1
:1005D00020919C0230919D0240919E0250919F0279
:1005E000820F931FA41FB51F8093A0029093A102B6
:1005F000A093A202B093A30220E030E08091A40275
:100600009091A502892B11F021E030E03093A502F2
:100610002093A40260919C0270919D0280919E02A1
:1006200090919F021F910F91FF90EF90089571DFBD
:100630003BCF6FDF14DF8091AB0290E0089569DF5C
:100640000EDF8091AA0290E0089563DF08DF8091B9
:10065000A60290E008955DDF02DF8091A70290E09E
:10066000089557DFFCDE8091A80290E0089581E0B4
:100670008093FA026093D7021092F8021092F90266
:1006800008952091D60230E08091D502281B3109CF
:10069000C90108954091D5028091D602481718F0FB
:1006A0002FEF3FEF0AC0E42FF0E0EB54FD4F8081C5
:1006B000282F30E04F5F4093D502C9010895E091A3
:1006C000D5028091D602E81718F0EFEFFFEF06C0D1
:1006D000F0E0EB54FD4F8081E82FF0E0CF0108956A
:1006E00008951092FE021092FD0288EE93E0A0E0C1
:1006F000B0E08093FF0290930003A0930103B093B6
:1007000002038EE792E09093FC028093FB0208952F
:10071000CF92DF92EF92FF920F931F93CF93DF93CD
:100720007C016B018A018091FA028823A1F0C0E06C
:10073000D0E00DC0D701ED91FC91D601AC0FBD1FEB
:100740000190F081E02DC7016C9109952196C017A9
:10075000D10780F303C0CB01642F02D1C801DF9120
:10076000CF911F910F91FF90EF90DF90CF90089560
:10077000DF93CF930F92CDB7DEB7FC0169838091F1
:10078000FA028823C9F08091F902803238F081E0C2
:1007900090E09383828320E030E014C08091F802DF
:1007A000E82FF0E0E852FD4F998190838F5F8093AE
:1007B000F8028093F90204C0CE01019661E0D0D026
:1007C00021E030E0C9010F90CF91DF9108950F93A0
:1007D000062F8091D70268ED72E04091F90221E086
:1007E0006AD01092F8021092F9021092FA020F9158
:1007F000089561E0ECCF413208F040E2862F65EBCE
:1008000072E010D01092D5028093D602089521E0B4
:10081000F2CF1092D5021092D6021092F8021092E6
:10082000F9024AC2382F413210F040E042C08091B4
:1008300007038823E1F791E09093070320930903CE
:100840008FEF8093740310922F0341504093300335
:100850004F5F9093080380910803330F832B80939D
:10086000080380910A03813041F410920A038091B9
:1008700008038093BB0085EC01C085EE8093BC002B
:10088000809107038130E1F380912F03841710F4E6
:1008900040912F0320E030E00AC0FB01E20FF31F7C
:1008A000D901A15FBC4F8C9180832F5F3F4F2417EC
:1008B000A0F3842F08950F931F93582F122F4132C6
:1008C00010F081E04AC0809107038823E1F782E0BD
:1008D00080930703009309038FEF809374031092B2
:1008E0002F0340933003AFE0B3E0FB0102C08191DE
:1008F0008D938E2F861B8417D0F31092080380915E
:100900000803550F852B8093080380910A038130DB
:1009100041F410920A03809108038093BB0085EC98
:1009200001C085EE8093BC00112321F08091070364
:100930008230E1F3809174038F3F11F480E00DC0A9
:1009400080917403803211F482E007C080917403B7
:10095000803311F084E001C083E01F910F9108956E
:10096000482F613210F081E00895809107038430B0
:1009700011F082E0089560935203A1E3B3E0842F65
:100980009C01F90102C081918D938E2F841B8617E3
:10099000D0F380E008951F920F920FB60F921124AA
:1009A0002F933F934F935F936F937F938F939F9377
:1009B000AF93BF93EF93FF938091B90090E0887F4E
:1009C00090708036910509F4F2C081369105CCF51E
:1009D0008832910509F47BC089329105B4F48031E5
:1009E000910509F46FC0813191053CF4009709F439
:1009F00047C1089709F04FC165C08831910509F4D6
:100A000066C0809709F047C182C08034910509F41F
:100A1000A4C08134910544F48033910509F482C067
:100A2000C89709F038C189C08035910509F489C09B
:100A30008835910509F496C08834910509F02BC1D9
:100A4000AEC08839910509F413C189399105ECF4D8
:100A50008837910509F4ABC0893791054CF4883685
:100A6000910509F4A4C08037910509F014C19FC015
:100A70008838910509F4FCC08039910509F49DC0BE
:100A80008038910509F007C198C0803B910509F4B1
:100A9000C6C0813B91054CF4803A910509F49FC092
:100AA000883A910509F0F7C0BAC0803C910509F475
:100AB000E3C0883C910509F4DFC0883B910509F04B
:100AC000EAC0C2C0809108038093BB00CFC0909160
:100AD0002F0380913003981768F490912F03E92F2A
:100AE000F0E0E15FFC4F80818093BB009F5F9093BB
:100AF0002F03BCC080910903882309F44BC085ED06
:100B00008093BC008091BC0084FDFCCFC2C080E219
:100B10008093740385ED8093BC008091BC0084FDBC
:100B2000FCCFB7C080E38093740385ED8093BC0055
:100B30008091BC0084FDFCCFACC088E3809374033B
:100B40009BC080912F039091BB00E82FF0E0E15F04
:100B5000FC4F90838F5F80932F0390912F038091A0
:100B6000300382C080912F039091BB00E82FF0E00A
:100B7000E15FFC4F90838F5F80932F038091090387
:100B8000882341F085ED8093BC008091BC0084FDFA
:100B9000FCCF7FC081E080930A0384EA6EC085EDBC
:100BA0008093BC008091BC0084FDFCCF72C083E0C8
:100BB000809307031092730359C0809173038032AE
:100BC00008F056C0809173039091BB00E82FF0E0CD
:100BD000ED5AFC4F90838F5F8093730347C08091E1
:100BE0007303803230F4E0917303F0E0ED5AFC4F70
:100BF000108285ED8093BC008091BC0084FDFCCF09
:100C00001092070360917303E0910D03F0910E03BE
:100C100083E593E070E00995109273032DC084E0A2
:100C2000809307031092510310925203E0910B033B
:100C3000F0910C03099580915203882329F481E0F7
:100C4000809352031092310390915103E92FF0E009
:100C5000EF5CFC4F80818093BB009F5F90935103BA
:100C60009091510380915203981710F485EC01C0C4
:100C700085E88093BC000FC085EC8093BC0009C060
:100C80001092740385ED8093BC008091BC0084FDBC
:100C9000FCCF10920703FF91EF91BF91AF919F910D
:100CA0008F917F916F915F914F913F912F910F9015
:100CB0000FBE0F901F9018951092070381E080934C
:100CC000090310920A0382E161E00E94CC0E83E1E5
:100CD00061E00E94CC0EE9EBF0E080818E7F8083A2
:100CE00080818D7F808388E48093B80085E4809341
:100CF000BC000895CF92DF92EF92FF920F931F9363
:100D00008C01F62ED72EE42EC52E862F61E0D8D783
:100D10008E2D60E0D5D7F801F082D182E282C382C5
:100D20001F910F91FF90EF90DF90CF900895EF9279
:100D3000FF920F931F93CF93DF93289A81E08093C4
:100D40007A03ACEDB3E006EE13E060EF73E048E148
:100D500054E022E234E0CCE2D4E084E5E82E84E002
:100D6000F82E8C9111968C931197F80180818183D4
:100D7000FB0180818183FA0180818183F901808177
:100D8000818388818983F701808191819383828324
:100D900011960F5F1F4F6F5F7F4F4F5F5F4F2F5F4A
:100DA0003F4F219682E090E0E80EF91E93E0A53EC9
:100DB000B907B9F6809180038093DC0380917F03AB
:100DC0008093E60380917E038093F00380918203F9
:100DD000809318048091830380932204809184037C
:100DE00080932C048091DA039091DB039093550457
:100DF00080935404DF91CF911F910F91FF90EF905A
:100E00000895EF92FF920F931F93CF93DF9328984B
:100E100010927A03AAEFB3E004E014E06EE074E00D
:100E200046E354E020E434E0CAE4D4E098E6E92E56
:100E300094E0F92E8C9111968C931197F801808192
:100E40008183FB0180818183FA0180818183F901A3
:100E50008081818388818983F70180819181938357
:100E6000828311960F5F1F4F6F5F7F4F4F5F5F4F02
:100E70002F5F3F4F219682E090E0E80EF91E94E04C
:100E8000A330B907B9F6809180038093FA0380916B
:100E90007F038093040480917E0380930E048091ED
:100EA0008203809336048091830380934004809171
:100EB000840380934A048091DA039091DB0390933A
:100EC000690480936804DF91CF911F910F91FF9087
:100ED000EF9008952091800330916A02231739F42E
:100EE00090917F0380916B02981778F402C03217BB
:100EF00060F080916C02281740F0281789F49091D7
:100F00007F0380917B03981758F481E090E09093E1
:100F10007D0380937C0381E08093780310927903B2
:100F200080916C02281739F490917F0380917B03A4
:100F3000981768F404C0821710F4231740F02317A1
:100F400079F490917F0380916B02981748F4109286
:100F50007D0310927C031092780381E080937903E3
:100F6000089580917C0390917D03009719F001977B
:100F7000C1F40BC080917703882399F442DF10926B
:100F8000750381E08093770308958091750388232A
:100F900041F4CDDE81E080937503109276031092C8
:100FA000770308951F920F920FB60F9211248F931B
:100FB00081E080936D028F910F900FBE0F901F9074
:100FC000189586E893E063E070E044E050E092CE4C
:100FD0006F927F928F929F92AF92BF92CF92DF9249
:100FE000EF92FF920F931F93DF93CF9300D000D027
:100FF0000F92CDB7DEB711E017C084E095E087D43B
:101000008093C30390919603E92FF0E0EC53FC4FDB
:1010100080839F5F909396038B3331F49093970373
:10102000109296031093D80384E095E03FD41816ED
:1010300019061CF38091D803882309F4F3C2109297
:10104000D80310E3109398038091C603809399030B
:1010500010929A0388E993E063D78093850384E034
:1010600095E060E071E08AD580918503823009F4D3
:1010700072C2833030F4882359F0813009F0D2C233
:1010800040C2833009F49BC2843009F0CBC2A8C2AD
:1010900080917A03882309F4C2C01AE7C12E14E0B4
:1010A000D12EB6E6EB2EB4E0FB2E0AE010E0ABE961
:1010B000AA2EA3E0BA2EF5E06F2EF1E07F2EECE32E
:1010C0008E2EE1E09E2E2DB73EB7245130400FB654
:1010D000F8943EBF0FBE2DBFEDB7FEB73196ADB74A
:1010E000BEB71296BC92AE9211977382628204834D
:1010F0001583D801A750BC4F8C9186831782D801E5
:10110000AD5FBB4F8C9180871186D801A35FBB4F29
:101110008C9182871386D801AB5CBB4F8C918487FE
:101120001586D801A15CBB4F8C9186871786D801A4
:10113000A75BBB4F8C9190E08E54984F918B808B26
:10114000D6018D919C91938B828B0FD72DB73EB793
:101150002C5E3F4F0FB6F8943EBF0FBE2DBF84E00C
:1011600095E0B5010BD58DB79EB744970FB6F894AF
:101170009EBF0FBE8DBFEDB7FEB73196ADB7BEB700
:101180001296BC92AE921197938282820483158349
:10119000D801A552BC4F8C9186831782D801AB51E0
:1011A000BC4F8C9180871186D801A151BC4F8C9186
:1011B00082871386D801A95EBB4F8C9184871586E0
:1011C000D801AF5DBB4F8C9186871786D801A55D8E
:1011D000BB4F8C9190E08E54984F918B808BD701B0
:1011E0008D919C91938B828BC0D62DB73EB72C5E90
:1011F0003F4F0FB6F8943EBF0FBE2DBF84E095E081
:10120000B501BCD4015010408EEF9FEFC80ED91E1F
:10121000E80EF91E0115110509F055CFBEC076E69E
:10122000C72E74E0D72E6AE7E62E64E0F62E0AE0B9
:1012300010E05BE9A52E53E0B52E4CE3642E41E0AF
:10124000742E35E0832E31E0932EADB7BEB75497A0
:101250000FB6F894BEBF0FBEADBFEDB7FEB7319667
:101260001296BC92AE9211977382628204831583A8
:10127000D801A552BC4F8C9186831782D801AB51FF
:10128000BC4F8C9180871186D801A151BC4F8C91A5
:1012900082871386D801A95EBB4F8C9184871586FF
:1012A000D801AF5DBB4F8C9186871786D801A55DAD
:1012B000BB4F8C9190E08E54984F918B808BD601D0
:1012C0008D919C91938B828B50D62DB73EB72C5E1F
:1012D0003F4F0FB6F8943EBF0FBE2DBF84E095E0A0
:1012E000B5014CD48DB79EB744970FB6F8949EBF06
:1012F0000FBE8DBFEDB7FEB73196ADB7BEB7129634
:10130000BC92AE9211979382828204831583D80196
:10131000A750BC4F8C9186831782D801AD5FBB4F1D
:101320008C9180871186D801A35FBB4F8C918287F7
:101330001386D801AB5CBB4F8C9184871586D8018E
:10134000A15CBB4F8C9186871786D801A75BBB4FEA
:101350008C9190E08E54984F918B808BD7018D911A
:101360009C91938B828B01D62DB73EB72C5E3F4F5D
:101370000FB6F8943EBF0FBE2DBF84E095E0B501D7
:10138000FDD3015010408EEF9FEFC80ED91EE80E1E
:10139000F91E0115110509F058CF63D93C015BD93D
:1013A0004C0153D95C014BD98C0143D97C013FD905
:1013B000ADB7BEB750970FB6F894BEBF0FBEADBF66
:1013C000EDB7FEB731962BE9C22E23E0D22E12964E
:1013D000DC92CE92119720E731E03383228375822D
:1013E000648297828682B186A0860150104013875E
:1013F00002870894E108F108F586E486825B97404D
:1014000097878687B2D52DB73EB7205F3F4F0FB67F
:10141000F8943EBF0FBE2DBF84E095E0B601AED379
:101420008DB79EB742970FB6F8949EBF0FBE8DBF83
:10143000EDB7FEB73196ADB7BEB71296DC92CE923D
:1014400011978BEA91E09383828380918003848358
:10145000158280917F038683178280917E03808727
:10146000118680918203828713868091830384870B
:1014700015868091840390E08E54984F97878687D5
:101480008091DA039091DB03918B808B6ED52DB721
:101490003EB72E5E3F4F0FB6F8943EBF0FBE2DBF36
:1014A00084E095E0B60168D320917A038DB79EB7AA
:1014B00008970FB6F8949EBF0FBE8DBFEDB7FEB76D
:1014C0003196ADB7BEB71296DC92CE9211978BEDE6
:1014D00091E09383828380917C0390917D03958337
:1014E00084832683178241D52DB73EB7285F3F4FAF
:1014F0000FB6F8943EBF0FBE2DBF84E095E0B60155
:1015000090C08091C703809398038091C803809313
:10151000990310929A0388E993E002D5809380039F
:101520008091C903809398038091CA0380939903A3
:1015300088E993E0F5D480937F038091CB03809377
:1015400098038091CC038093990388E993E0E8D4D1
:1015500080937E032FC08091C7038093980380916E
:10156000C8038093990310929A0388E993E0D8D432
:10157000809382038091C903809398038091CA036A
:101580008093990388E993E0CBD48093830380917F
:10159000CB0389838091CC038A838091CD038B8395
:1015A0008091CE038C831D82CE010196B9D4825BDB
:1015B000809384038EE793E00E94A90033C01093C8
:1015C00098038091C7038093990310929A0388E946
:1015D00093E0A6D4882311F0AADB24C012DC22C039
:1015E000109398038091C7038093990310929A03F4
:1015F00088E993E095D4182F84E095E060EF71E0DE
:10160000BDD2112341F081E08093D90384E095E0BD
:1016100067EF71E006C01092D90384E095E062E0C4
:1016200072E0ACD20F900F900F900F900F90CF916F
:10163000DF911F910F91FF90EF90DF90CF90BF90BF
:10164000AF909F908F907F906F90089580916D02E2
:10165000882339F010926D028EE793E00E94E90032
:1016600039CC0895559A209A84E060E029D383E02C
:1016700061E026C3EAD2F6DF92E0909380008DE12C
:101680008093810090936F0088E09DE390938700A2
:101690008093860084E095E040E056E960E070E0E9
:1016A0007FD084E095E06DE072E068D2CFDF59DC56
:1016B0008FDCFCCF1F920F920FB60F9211242F9345
:1016C0003F934F938F939F93EF93FF938091C0002D
:1016D00082FD1DC04091C6002091BC043091BD0424
:1016E0002F5F3F4F2F7330708091BE049091BF04E5
:1016F0002817390771F0E091BC04F091BD04E4585B
:10170000FB4F40833093BD042093BC0402C0809102
:10171000C600FF91EF919F918F914F913F912F9133
:101720000F900FBE0F901F9018951F920F920FB63B
:101730000F9211242F933F938F939F93EF93FF93D7
:1017400020910005309101058091020590910305DB
:101750002817390731F48091C1008F7D8093C10033
:1017600014C0E0910205F0910305E054FB4F208185
:10177000809102059091030501968F73907090936C
:101780000305809302052093C600FF91EF919F917E
:101790008F913F912F910F900FBE0F901F90189532
:1017A000AF92BF92DF92EF92FF920F931F93CF936E
:1017B000DF93EC017A018B01DD24403081EE580784
:1017C00080E0680780E0780711F0DD24D39491E091
:1017D000A92EB12CEC89FD89DD2069F0C50108A096
:1017E00002C0880F991F0A94E2F7808360E079E0D5
:1017F0008DE390E005C0108260E874E88EE190E02F
:10180000A80197011AD321503040404050405695CE
:1018100047953795279580E12030380720F0DD2067
:1018200011F0DD24D7CFE889F9893083EA89FB8973
:10183000208319A2EE89FF89408121E030E0C901AF
:101840000C8C02C0880F991F0A94E2F7482B408342
:10185000EE89FF894081C9010D8C02C0880F991F54
:101860000A94E2F7482B4083EE89FF894081C90141
:101870000E8C02C0880F991F0A94E2F7482B408310
:10188000EE89FF8980810F8C02C0220F331F0A94DA
:10189000E2F7209528232083DF91CF911F910F91AC
:1018A000FF90EF90DF90BF90AF900895DC011C9601
:1018B000ED91FC911D97E05CFF4F2191319180816A
:1018C0009181281B390B2F733070C9010895DC01F9
:1018D0001C96ED91FC911D97E05CFF4F20813181BA
:1018E000E054F040DF01AE5BBF4F8D919C911197AA
:1018F0002817390719F42FEF3FEF07C08D919C91FE
:10190000E80FF91F8081282F30E0C9010895DC011C
:101910001C96ED91FC911D97E05CFF4F2081318179
:10192000E054F040DF01AE5BBF4F8D919C91119769
:101930002817390719F42FEF3FEF10C08D919C91B4
:101940001197E80FF91F20818D919C9111970196B5
:101950008F73907011969C938E9330E0C901089517
:10196000DC0191968C919197882339F05496ED91F2
:10197000FC915597808186FFF9CF91961C9208952E
:10198000CF93DF93EC01EE85FF85E05CFF4F208174
:101990003181E054F0402F5F3F4F2F733070DF01F3
:1019A000AE5BBF4F8D919C91119728173907D1F3EA
:1019B000E05CFF4F80819181E054F040E80FF91F17
:1019C0006083EE85FF85E05CFF4F31832083EE89E5
:1019D000FF89208181E090E00F8C02C0880F991F61
:1019E0000A94E2F7282B208381E089A3EC89FD8902
:1019F00080818064808381E090E0DF91CF910895C1
:101A0000109207051092060588EE93E0A0E0B0E082
:101A10008093080590930905A0930A05B0930B05E0
:101A20008EE892E090930505809304058CE794E09E
:101A3000909311058093100580EC94E0909313052A
:101A40008093120585EC90E0909315058093140522
:101A500084EC90E0909317058093160580EC90E05D
:101A6000909319058093180581EC90E090931B05E5
:101A700080931A0582EC90E090931D0580931C05DD
:101A800086EC90E090931F0580931E0584E0809380
:101A9000200583E08093210587E08093220585E07F
:101AA0008093230581E0809324050895CF92DF92EF
:101AB000EF92FF920F931F93CF93DF937C016B0103
:101AC0008A01C0E0D0E00FC0D6016D916D01D70151
:101AD000ED91FC910190F081E02DC7010995C80FAF
:101AE000D91F015010400115110571F7CE01DF918A
:101AF000CF911F910F91FF90EF90DF90CF900895BD
:101B0000EF92FF920F931F938C01DC01ED91FC91FA
:101B10000190F081E02D6DE009957C01D801ED91F7
:101B2000FC910190F081E02DC8016AE009959C01CB
:101B30002E0D3F1DC9011F910F91FF90EF90089549
:101B4000CF93DF93EC016115710519F420E030E0CB
:101B50000FC0DB010D900020E9F71197A61BB70B12
:101B6000E881F9810280F381E02DAD0109959C01A6
:101B7000C901DF91CF910895E3CF0895EF92FF92CD
:101B80000F931F937C01DCDF8C01C701B9DF080FC5
:101B9000191FC8011F910F91FF90EF9008951F9298
:101BA0000F920FB60F9211242F933F938F939F9311
:101BB000AF93BF9380912A0590912B05A0912C059E
:101BC000B0912D0530912E050196A11DB11D232F39
:101BD0002D5F2D3720F02D570196A11DB11D2093AB
:101BE0002E0580932A0590932B05A0932C05B09386
:101BF0002D058091260590912705A0912805B0918B
:101C000029050196A11DB11D8093260590932705F6
:101C1000A0932805B0932905BF91AF919F918F9113
:101C20003F912F910F900FBE0F901F9018958FB777
:101C3000F89420912A0530912B0540912C05509164
:101C40002D058FBFB901CA010895789484B58260CB
:101C500084BD84B5816084BD85B5826085BD85B550
:101C6000816085BDEEE6F0E0808181608083E1E8FF
:101C7000F0E0108280818260808380818160808337
:101C8000E0E8F0E0808181608083E1EBF0E080813A
:101C900084608083E0EBF0E0808181608083EAE70C
:101CA000F0E0808184608083808182608083808195
:101CB000816080838081806880831092C100089554
:101CC000CF93DF93482F50E0CA0186569F4FFC0107
:101CD00034914A575F4FFA018491882369F190E06B
:101CE000880F991FFC01E859FF4FA591B491FC01A1
:101CF000EE58FF4FC591D491662351F42FB7F89455
:101D00008C91932F909589238C93888189230BC084
:101D1000623061F42FB7F8948C91932F90958923BA
:101D20008C938881832B88832FBF06C09FB7F8943C
:101D30008C91832B8C939FBFDF91CF91089583303B
:101D400071F0843028F48130A1F0823021F514C084
:101D50008630B1F08730D1F08430E9F404C080914E
:101D600080008F7703C0809180008F7D80938000FA
:101D7000089584B58F7702C084B58F7D84BD0895A2
:101D80008091B0008F778093B00008958091B0006B
:101D90008F7D8093B0000895FF920F931F93F62ECE
:101DA000482F50E0CA0182559F4FFC012491CA017F
:101DB00086569F4FFC0114914A575F4FFA010491D8
:101DC0000023C1F0222311F0822FB9DFE02FF0E0D1
:101DD000EE0FFF1FEE58FF4FA591B4919FB7F894F7
:101DE000FF2021F48C911095812302C08C91812BCE
:101DF0008C939FBF1F910F91FF900895991B79E0DD
:101E000004C0991F961708F0961B881F7A95C9F78A
:101E10008095089597FB092E07260AD077FD04D0F8
:101E20002ED006D000201AF4709561957F4F08954A
:101E3000F6F7909581959F4F0895A1E21A2EAA1B5F
:101E4000BB1BFD010DC0AA1FBB1FEE1FFF1FA2176A
:101E5000B307E407F50720F0A21BB30BE40BF50B67
:101E6000661F771F881F991F1A9469F760957095F0
:101E7000809590959B01AC01BD01CF010895AA1BEF
:101E8000BB1B51E107C0AA1FBB1FA617B70710F065
:101E9000A61BB70B881F991F5A95A9F78095909597
:101EA000BC01CD0108952F923F924F925F926F92A5
:101EB0007F928F929F92AF92BF92CF92DF92EF92DA
:101EC000FF920F931F93CF93DF93CDB7DEB7CA1B5B
:101ED000DB0B0FB6F894DEBF0FBECDBF09942A8886
:101EE000398848885F846E847D848C849B84AA842E
:101EF000B984C884DF80EE80FD800C811B81AA81BB
:101F0000B981CE0FD11D0FB6F894DEBF0FBECDBF85
:101F1000ED010895EE0FFF1F0590F491E02D099457
:101F2000FC0188279927E89421912032E9F3293090
:101F300010F02E30C8F32B3239F02D3231F4689482
:101F400003C00BD0820F911D219120532A30C8F37A
:101F50001EF4909581959F4F08957AE0979F902D5C
:101F6000879F802D910D11240895AEE0B0E0EAEB3B
:101F7000FFE0A7CF0D891E8986E08C831A83098331
:101F80008FEF9FE79E838D839E01275E3F4FCE019B
:101F900001966F89788DA90109D02F813885020FAC
:101FA000131FF80110822E96E4E0A7CFABE0B0E05B
:101FB000EBEDFFE078CF3C012B015A01FC011782C9
:101FC0001682838181FD03C06FEF7FEFB9C19AE074
:101FD000892E1E010894211C311CF3012381F2017A
:101FE00023FD859123FF81912F01882309F4A5C149
:101FF000853239F423FD859123FF81912F018532AC
:1020000021F490E0B301B6D1E8CF982FFF24EE245D
:102010009924FFE1FF15D0F09B3269F09C3228F43F
:10202000903259F0933291F40EC09D3249F09033C2
:1020300069F441E024C052E0F52A84E0F82A28C07F
:1020400098E0F92A25C0E0E1FE2A22C0F7FC29C069
:10205000892F80538A3070F4F6FE05C0989C902C2E
:102060001124980E15C0E89CE02C1124E80EF0E233
:10207000FF2A0EC09E3229F4F6FC5FC140E4F42A28
:1020800007C09C3619F450E8F52A02C0983649F486
:10209000F20123FD959123FF91912F01992309F0DE
:1020A000B8CF892F8554833018F08052833038F4AC
:1020B00044E050E0A40EB51E5FE359830FC0933691
:1020C00031F0933779F0933509F052C01FC0F50114
:1020D0008081898342E050E0A40EB51E610101E0D9
:1020E00010E011C0F501C080D180F6FC03C06FEF95
:1020F0007FEF02C0692D70E042E050E0A40EB51EF3
:10210000C6012DD18C015FE7F52213C0F501C08017
:10211000D180F6FC03C06FEF7FEF02C0692D70E045
:1021200042E050E0A40EB51EC6010ED18C0150E86D
:10213000F52AF3FE06C018C080E290E0B3011AD180
:10214000EA948E2D90E008171907B0F30DC0F60140
:10215000F7FC8591F7FE81916F0190E0B3010AD100
:10216000E110EA94015010400115110581F7E2C019
:10217000943611F0993661F5F7FE08C0F50120811B
:1021800031814281538184E090E00AC0F501808171
:1021900091819C01442737FD4095542F82E090E0C7
:1021A000A80EB91E9FE6F92257FF09C05095409529
:1021B000309521953F4F4F4F5F4FE0E8FE2ACA010F
:1021C000B901A1012AE030E001D1D82ED2183FC0D8
:1021D000953729F41F2D1F7E2AE030E01DC01F2DEA
:1021E000197F9F3661F0903720F4983509F0A5C02B
:1021F0000FC0903739F0983709F09FC004C028E02D
:1022000030E00AC0106114FD146020E130E004C029
:1022100014FD166020E132E017FF08C0F50160816F
:1022200071818281938144E050E008C0F501808192
:102230009181BC0180E090E042E050E0A40EB51E28
:10224000A101C4D0D82ED2188FE7F82EF122F6FEC5
:102250000BC05EEFF522D91438F4F4FE07C0F2FC8F
:1022600005C08FEEF82202C01D2D01C0192DF4FE0D
:102270000DC0FE01ED0DF11D8081803319F499EE42
:10228000F92208C01F5FF2FE05C003C08F2D8678BB
:1022900009F01F5F0F2DF3FC13C0F0FE0EC01E15DA
:1022A00010F09D2C0AC09D2C9E0C911A1E2D05C06D
:1022B00080E290E0B3015ED01F5F1E15C8F304C03A
:1022C0001E1510F4E11A01C0EE2404FF0EC080E3D5
:1022D00090E0B3014FD002FF1BC001FD03C088E7AF
:1022E00090E00EC088E590E00BC0802F867881F0EA
:1022F00001FF02C08BE201C080E2F7FC8DE290E0BA
:10230000B30138D005C080E390E0B30133D09A9494
:10231000D914C8F3DA94F101ED0DF11D808190E03C
:10232000B30128D0DD20B1F705C080E290E0B30111
:1023300021D0EA94EE20C9F750CEF301668177816F
:10234000CB012B96E2E1CBCDFC01059061507040B2
:102350000110D8F7809590958E0F9F1F0895FC016E
:102360006150704001900110D8F7809590958E0FC4
:102370009F1F08950F931F93CF93DF938C01EB0161
:102380008B8181FF1BC082FF0DC02E813F818C811C
:102390009D812817390764F4E881F9810193F98355
:1023A000E88306C0E885F985802F0995892B31F4EB
:1023B0008E819F8101969F838E8302C00FEF1FEF56
:1023C000C801DF91CF911F910F910895FA01AA27BB
:1023D000283051F1203181F1E8946F936E7F6E5F68
:1023E0007F4F8F4F9F4FAF4FB1E03ED0B4E03CD016
:1023F000670F781F891F9A1FA11D680F791F8A1FF9
:10240000911DA11D6A0F711D811D911DA11D20D05F
:1024100009F468943F912AE0269F11243019305D19
:102420003193DEF6CF010895462F4770405D41930A
:10243000B3E00FD0C9F7F6CF462F4F70405D4A3357
:1024400018F0495D31FD4052419302D0A9F7EACF1F
:10245000B4E0A6959795879577956795BA95C9F74E
:1024600000976105710508959B01AC010A2E069441
:102470005795479537952795BA95C9F7620F731FFA
:0C248000841F951FA01D0895F894FFCF45
:10248C00476F7421004465736C69676F755F252E07
:10249C0032643A20252E32643A252E32643A252EA7
:1024AC0032642C20252E32642F252E32642F256485
:1024BC0020443D20252E336420636D004C69676FEA
:1024CC00755F252E32643A20252E32643A252E3241
:1024DC00643A252E32642C20252E32642F252E3280
:1024EC00642F256420443D20252E336420636D0029
:1024FC00557074696D653A20252E32643A252E325A
:10250C00643A252E32642C2025642064617928736A
:10251C00292C202564206D6F6E74682873292C205B
:10252C00256420796561722873290054696D653AB8
:10253C0020252E32643A252E32643A252E32642C14
:10254C0020252E32642F252E32642F25642C20203A
:10255C00443D20252E336420636D00205065722E7F
:10256C003A2025642C204D6F746F723A202564003C
:10257C00456E74726F7500456E74726F75203D20D8
:10258C003100456E74726F75203D2030002D204156
:10259C0063696F6E6E6120576174657220426F6D56
:1025AC0062202D0025643A25643A256400257320A9
:1025BC002564202564004A616E00466562004D6109
:1025CC007200417072004D6179004A756E004A7557
:1025DC006C0041756700536570004F6374004E6F5B
:1025EC007600446563002C010000151E06011F1CBB
:1025FC001F1E1F1E1F1F1E1F1E1F00000000B803E2
:10260C00880341034A035F03700300000000C00C01
:0A261C00560D560C870C670CB00C2D
:00000001FF
